:020000040800F2
:100000006F100000FFFFFFFF323344470000000085
:100010000010000000800000FFFFFFFFFFFFFFFF58
:10002000FFFFFFFFFFFFFFFFFFFFFFFFFFFFFFFFE0
:10003000FFFFFFFFFFFFFFFFFFFFFFFFFFFFFFFFD0
:1000400000000000000000000000000000000000B0
:1000500000000000000000000000000000000000A0
:10100000C1AA010000000000000000000000000074
:1010100000000000000000000000000000000000D0
:1010200000000000000000000000000000000000C0
:1010300000000000000000000000000000000000B0
:1010400000000000000000000000000000000000A0
:101050000000000000000000000000000000000090
:101060000000000000000000000000000000000080
:101070000000000000000000000000000000000070
:101080000000000000000000000000000000000060
:101090000000000000000000000000000000000050
:1010A0000000000000000000000000000000000040
:1010B0000000000000000000000000000000000030
:1010C0000000000000000000000000000000000020
:1010D0000000000000000000000000000000000010
:1010E0000000000000000000000000000000000000
:1010F00000000000000000000000000000000000F0
:1011000000000000000000000000000000000000DF
:1011100000000000000000000000000000000000CF
:1011200000000000000000000000000000000000BF
:1011300000000000000000000000000000000000AF
:10114000000000000000000000000000000000009F
:10115000000000000000000000000000000000008F
:10116000000000000000000000000000000000007F
:10117000000000000000000000000000000000006F
:10118000000000000000000000000000000000005F
:10119000000000000000000000000000000000004F
:1011A000000000000000000000000000000000003F
:1011B000000000000000000000000000000000002F
:1011C000000000000000000000000000000000001F
:1011D00073700430970100189381C198173100187B
:1011E000130141729302002073A0027D9702000058
:1011F000938242E173907230971200009382429082
:101200007390C27E73E0C07E970200009382827F5B
:10121000739052309302F00373B0523073E0513048
:10122000996273A002307310300073F00232170518
:1012300000001305E50997F5FF179385A50C17F630
:10124000FF171306260C63FAC5008322050023A0AE
:10125000550011059105E3EAC5FE17350000130599
:10126000E50A97F5FF179385E50917F6FF171306AB
:10127000E60F63FAC5008322050023A0550011057F
:101280009105E3EAC5FE17F5FF171305250E97250F
:1012900000189385A5386377B50023200500110554
:1012A000E36DB5FEEF10701817250000130545D04B
:1012B000EF10304FEF10D052EF00507D01458145C7
:0A12C000B529EF00907F01A00000A7
:10130000101F00082A1F0008121F0008301F0008C5
:10131000381F0008761F00080000000000000000D1
:10132000010203040607080972613A203078257823
:101330002C2074703A20307825782C2074303A2094
:10134000307825782C2074313A20307825782C207C
:1013500074323A20307825782C2074333A20307853
:1013600025782C2074343A20307825782C20743558
:101370003A20307825782C2074363A203078257839
:101380000A61303A20307825782C2061313A2030BB
:101390007825782C2061323A20307825782C20610D
:1013A000333A20307825782C2061343A2030782563
:1013B000782C2061353A20307825782C2061363A17
:1013C00020307825782C2061373A20307825780A2B
:1013D0006D63617573653A20307825782C206D65D2
:1013E00070633A20307825782C206D7375626D3AE1
:1013F00020307825780A00004E4D49200D0000006D
:101400004D4341555345203A203078256C780D0ADC
:10141000000000004D4443415553453A20307825A3
:101420006C780D0A000000004D4550432020203A02
:10143000203078256C780D0A000000004D5456418C
:101440004C20203A203078256C780D0A00000000EE
:101450004D424C3A204669727374207072696E7402
:101460002E0D0A004E6F20696D61676520746F2034
:10147000626F6F742028726574203D202564292EC8
:101480000D0A00004D424C3A20426F6F7420667284
:101490006F6D20496D6167652025642E0D0A00007F
:1014A00056616C696461746520496D6167652025CA
:1014B00064206661696C65642028726574203D2033
:1014C0002564292E0D0A00004D424C3A2056616CCD
:1014D000696461746520496D616765202564204FEA
:1014E0004B2E0D0A000000004D424C3A204A756D0B
:1014F0007020746F204D61696E20496D61676520B1
:1015000028307825303878292E0D0A00696D6167FA
:10151000655F785F76616C69646174653A20696DB6
:10152000616765206F666673657420697320307823
:1015300025782E0D0A000000696D6167655F785F90
:1015400076616C69646174653A2063657274206FBA
:101550007220696D61676520766572696669656488
:10156000206661696C6564282564292E200D0A00B7
:101570004D424C3A20496D61676520636572742065
:10158000616E642073696761747572652076657237
:101590006966696564204F4B2E0D0A00696D6167AD
:1015A000655F785F76616C69646174653A20496D46
:1015B0006167652076657269666965642066616940
:1015C0006C656420282564292E200D0A0000000087
:1015D0004D424C3A20496D616765207665726966B7
:1015E000696564204F4B2E0D0A0000005570646140
:1015F0007465204D61696E20496D6167652076656F
:101600007273696F6E20636F756E746572206661A8
:10161000696C6564282564292E0D0A004D424C3AF8
:101620002043757272656E7420696D6167652076FE
:10163000657273696F6E2069732025642E25642E90
:1016400025640D0A000000000000000000000000FA
:10165000000000000000000000000000000000008A
:10166000000000000000000000000000000000007A
:10167000000000000000000000000000000000006A
:10168000000000000000000000000000000000005A
:10169000000000000000000000000000000000004A
:1016A0000000000000000000232D302B200000006F
:1016B000686C4C0065666745464700003031323340
:1016C000343536373839414243444546000000003E
:1016D00030313233343536373839616263646566A8
:1016E00000000000062800001C280000DC27000085
:1016F000DC270000DC270000DC2700001C2800009D
:10170000DC270000DC270000DC270000DC270000CD
:10171000722900005A28000046290000DC2700003A
:10172000DC270000A0290000DC2700005A28000068
:10173000DC270000DC2700004E290000EF127003B8
:101740007171B70600209387062002C402C61808EC
:101750009386062A03A80700C8438C47D047232056
:10176000070148C30CC750C7C1074107E394D7FE20
:101770004247B7C7CEBA9387E70D6319F718EF0052
:101780003034370500208D65130585583704002057
:101790009780F503E780604B130404368564138556
:1017A0004410812D138504C0A92513060004A94502
:1017B00037050240F92B13060008A1453705024002
:1017C000C92B9306000401468945370502403D2395
:1017D000930600040946814537050240BD23930660
:1017E00000080146894537050240092B9306000889
:1017F0000946814537050240892B37150140EF0026
:10180000607BF1659385052037150140EF0070007E
:10181000914537150140EF00B008A145371501404B
:10182000EF003007954537150140EF00100A3715D6
:101830000140EF0070051C40B71500089385054571
:10184000DC43054582976C002800EF10A04E1C4039
:1018500063440514DC432246B715000893854548C8
:1018600005458297224785476308F71605651305E6
:1018700055C141231C400545BC5B82973245034658
:1018800001024C100115EF10A05B1C402246DC4306
:1018900063410512B71500089385854C054582976D
:1018A0001C40034581000946BC439945B704000824
:1018B00082971C4003458100BC47829781450145C2
:1018C00097D0F503E7808019014597D0F503E780AD
:1018D000801E014597D0F503E7804022B24622479B
:1018E0008547B6946303F70C1C402686DC43B71586
:1018F00000089385854E05458297EF10603F1716C7
:1019000000001306E6420296828401A0130600201E
:10191000814537050020EF1080721306000A8145CB
:101920000808EF10C071EF00B019370500208D6571
:10193000130585589780F503E7802031056413056A
:1019400034D04529130544D06D21130554D03704F4
:1019500000204521130404361C40BC5782971C40CC
:1019600037150140FC5782971C40130671008545CE
:10197000DC5B094582971C4021ED034571009C5FAB
:1019800082971C40C8479770F503E780609797508F
:10199000F503E780C06919B5DC43B71500082A864E
:1019A00093854546094582978DB71C4037A61E088A
:1019B00035BFB7150008AA869385054A0945829761
:1019C0001C40034581001146BC439945829735BFB1
:1019D0009C5F1145829775B7EF10C03241BD000082
:1019E00000000000000000000000000000000000F7
:1019F00000000000000000000000000000000000E7
:101A0000731191345D7106C012C216C41AC61EC885
:101A10002ACA2ECC32CE36D03AD23ED442DC46DE72
:101A2000F2C0F6C2FAC4FEC673D0E57E7350F67EED
:101A300073D0B67E130181FAF322300096CA02E019
:101A400006E20AE40EE612E816EA1AEC1EEE2AF0A6
:101A50002EF232F436F63AF83EFA42FC46FEF2E056
:101A6000F6E2FAE4FEE6732520348A857D250260DD
:101A700092602261B2614262D2626263F263027575
:101A800092752276B2764277D2776278F278066ED5
:101A9000966E266FB66FD6427390320013018105A1
:101AA000D2527390427CC25273901234B2527390ED
:101AB000223482401242A2423243C2435245E2459E
:101AC000724682561257A2576258F258064E964EE8
:101AD000264FB64F616173119134730020300000BE
:101AE00000000000000000000000000000000000F6
:101AF000000000000000000000000000731191349D
:101B00005D7106C012C216C41AC61EC82ACA2ECCDF
:101B100032CE36D03AD23ED442DC46DEF2C0F6C2F5
:101B2000FAC4FEC673D0E57E7350F67E73D0B67EDF
:101B3000F322003063D7020A130181FAF322300046
:101B400096CA02E006E20AE40EE612E816EA1AEC89
:101B50001EEE2AF02EF232F436F63AF83EFA42FC45
:101B600046FEF2E0F6E2FAE4FEE6F390D07E737011
:101B70000430026092602261B2614262D2626263AA
:101B8000F263027592752276B2764277D2776278E6
:101B9000F278066E966E266FB66FD642739032005C
:101BA00013018105D2527390427CC2527390123459
:101BB000B2527390223482401242A2423243C24354
:101BC0005245E245724682561257A2576258F25861
:101BD000064E964E264FB64F6161731191347300D5
:101BE0002030130181FAF390D07E7370043013011A
:101BF0008105D2527390427CC25273901234B25219
:101C00007390223482401242A2423243C243524570
:101C1000E245724682561257A2576258F258064E53
:101C2000964E264FB64F6161731191347300203088
:101C300001A0A14773A007308280B70700D2A38517
:101C4000A7008280B70700D203C70700060579897D
:101C50001377170E2380E70003C707001377F70FEA
:101C6000598D2380A7008280372702401C4B93F7B1
:101C7000070899CBB7076745938737125CC3B797B7
:101C8000EFCD9387B79A5CC38280372702401C4B05
:101C900093E707081CCB8280372702401C4B93F741
:101CA000072099EBB7076745938737121CC7B7978B
:101CB000EFCD9387B79A1CC78280372702401C4B11
:101CC00093F7F7DF1CCB8280B727024023A00708D9
:101CD00003A70708C205498F23A0E70803A7070841
:101CE000D98D23A0B7088280B727024023A2070816
:101CF00003A74708498F23A2E7088280032E050027
:101D00000323C50001488D42C14F13171800B39734
:101D1000E20093C7F7FFB3180029B3F8D800B3FE69
:101D2000C701339FE5000508B3F767003317E600E6
:101D300063860800336EDF013363F700E317F8FDB5
:101D40002320C5012326650082808547638FF50225
:101D50005C41B3F7D7405CC10328850081470D4E35
:101D6000414313971700B315F028F58DB318EE0013
:101D700085073317E60089C53378184133680701B2
:101D8000E39167FE2324050182805C41D58F5CC10D
:101D9000E1B783280502032845028147BD4E214E45
:101DA00013972700B316F028F18E3393EE008507C2
:101DB0003397E50089C6B3F86840B3681701E3912B
:101DC000C7FF01473D4FC14EB316F028F18E85077E
:101DD000331EEF003393E50089C63378C84133687A
:101DE00003011107E392D7FF2320150323220503E4
:101DF0008280374702409357650013070780BA97E0
:101E000098433315A72888C38280374702409357E9
:101E1000650013070780BA9798433315A72888C32E
:101E20008280374702409357650013070780BA97AF
:101E300098433315A0283375A74088C38280B7170D
:101E4000000893878731D0439447D8478C43B7071E
:101E500003047971938717203EC23EC6B7B7710B52
:101E60003ED0B7274E0E938707C03ED2B7D7121386
:101E70003ED4B7479C1C9387078032CA36CC3ACEF3
:101E80002EC802C002C43ED637470240832787804F
:101E900085462A8689838D8B6384D7088946639C0F
:101EA000D70683274788141803274788D983B18B1F
:101EB000B69783A507FF9357A7018507B3D5F5020A
:101EC000B747024083A6878003A7878008189182BE
:101ED000BD8AAA9683A78780298383C606FE1D8BA9
:101EE0002A97034507FDB58333D7D5009D8B14187A
:101EF000B697954603C887FD3355A70063EAC60A1F
:101F0000B7170008938707303346F6201C428287B4
:101F10002E8545618280B725F400938505404DB735
:101F2000B7656202938505A061BF3A8545618280ED
:101F30003355070145618280B746024083A7C688B2
:101F4000370700C0F98FF1D783A7C688370600404E
:101F50002E85F98FE38FC7FA83A7C68837060080DE
:101F60002165F98FE387C7FA83A7C6880145F98FF2
:101F7000E391E7FA0DA8B746024083A7C688370762
:101F8000000CF98FD9D783A7C688370600042E85A1
:101F9000F98FE380C7F883A7C688B7060008014514
:101FA0007D8FE318D7F63725F4001305054095B764
:101FB000014585B7EF02F07BB75700409387078054
:101FC000630EF500B7170140630CF502B7470040F8
:101FD00093870740630DF5006F00F07B05641305E0
:101FE00024812535130524812D3D6F00D07A0564A9
:101FF00013051481193D1305148125356F00B0793F
:10200000056413054490113513054490193D6F0084
:102010009078EF021076B7570040938707802A84A4
:10202000AE84630AF504B7170140630CF504B747A3
:1020300000409387074001456302F4041840A167FC
:1020400093D514007D8F19CFB327B520B3D5970250
:102050004165411593D715009D8BE98DDD8D4CC4ED
:102060006F007073B307B500B3D59702B3C5050809
:102070004CC46F0050721145D933C9B70945C133FB
:1020800075BF0D456D3B5DBF1C4193E717001CC13B
:10209000828018415D9B18C11C41CD8F1CC182807C
:1020A00018416D9B18C11C41CD8F1CC1828093F5D6
:1020B000F51F0CD5828093D7650093F7F73FAA9759
:1020C00088433355B5000589828093D7650093F71F
:1020D000F73F3E951C41B395B7280CC1828093878A
:1020E000419F37270008130707249386470398C3A7
:1020F0009107E39ED7FE8280AD4763E8A7009387F0
:10210000419F3345F5200CC182808567FD1763032D
:10211000F500828023A2B1A282808567FD17337704
:10212000F500AD4663EEE6009387419F3347F72005
:102130001C439DC3EF02F063829701456F00B065B9
:10214000630EF700B727000893870724EF02706239
:10215000829701456F0030640145828083A741A2C8
:10216000F1FBDDBFEF02F0602A830325C50839715A
:102170008328C3090328830983278306032743068B
:10218000832603060326C305832583052AD8032552
:1021900083082AD6032543082AD4032543092AD2D3
:1021A000032503092AD0032E030837150008130559
:1021B000853272CE032EC30772CC032E830772CAF8
:1021C000032E430772C8032E030772C6032EC306ED
:1021D00072C4032E430A72C20323030A1AC0EF001B
:1021E000907021616F00305BEF02B058AA84371500
:1021F00000081305853F2E84EF1060003715000896
:10220000A68513050540EF00106EF325907C371569
:10221000000813054541EF00106DF3251034371504
:10222000000813058542EF00106CF3253034371594
:1022300000081305C543EF00106B2285253701A068
:10224000EF023053AA87371500082E841305054086
:10225000BE85EF005069F325907C37150008130503
:102260004541EF005068F325103437150008130579
:102270008542EF005067F325303437150008130509
:10228000C543EF0050662285F13D01A0EF02704E7C
:10229000854773A0A77CA135B72500080565938500
:1022A000851E7D15913D0145493A0945613A5132F6
:1022B000954773A007326F00104E82808280828023
:1022C000EF023048B747024083A78793411193F745
:1022D000F70F639107441305300797D0F503E780A4
:1022E00080933745F70B3713F70B930285EB370EC7
:1022F00000203736F70B930FC35D23245E36370E6D
:102300000020B725F70B130FE6C32326FE37370E41
:102310000020938E2517232EEE3923A4D185930E0A
:10232000A358370E00202328DE37930EC354370EF0
:102330000020232ADE37930E835D370E0020232CE6
:10234000DE37930E6354370E0020232EDE37930EB4
:10235000034A370E00202320DE39930EA3BC370E2C
:1023600000202324DE39930EC308370E00202322D9
:10237000DE39930E0309370E00202326DE39930E33
:102380000347370E0020232ADE39930E0348370E09
:1023900000202328DE391303A33A370E0020232C14
:1023A0006E38138EE5F723A6C185138EA5FD23A8ED
:1023B000C185138EA5FA23AAC185138EA5F023AC7F
:1023C000C185138E051B23A6C187138EC50C23A8B8
:1023D000C187130CE5C8138E450423AAC18723A027
:1023E0008185138E25F3130C85C4930DA6F623ACBB
:1023F000C18723AE8185138EC514130C85C323A218
:10240000B185930DC6CB23A0C18923A28187138EEA
:10241000250A130CC5BD23A4B187930D468E23A2B4
:10242000C18923A08187930C65BD23AEB18723A406
:102430009189130D0622130C85E923A6A189930B1C
:10244000C5E723A88189930CA68F23AA7189138BD2
:10245000450C23AC9189938A250223AE6189130C24
:1024600046A523A0518B130D269423A2818B930B99
:10247000669823A4A18B23A6718B9385651B130BF0
:1024800046BC23A8B18A930CC6B523AA618B130C52
:1024900026AF23AC918B930A46BE23AE818B377750
:1024A000F70B23A0518D130666B2B767F70B130A1B
:1024B000279123A2C18C9389E77423A4418D13092A
:1024C000E77823A6318D9304478A23AE218D130428
:1024D000877523A8918C9303A76523AA818C930207
:1024E000878923AC718C930FE78823A0518E130F3B
:1024F000476423A2F18F930EC77523A4E18F130EB7
:10250000078E23A6D18F1303C78A23A8C18FB7755F
:10251000F70B23AA618E1384256523AC818E9385E6
:10252000856423AEB18EB7F5F60B1384A52023A0E6
:1025300081901384E5D123A281903704F70B930493
:10254000C4B523A49190930F0549930E857213038C
:10255000055F130D45361305653F2AC69385C5549F
:1025600023A6B190B705F70BB708F70B938545EE97
:10257000138CC8CE23A8B190938B285E23AA819197
:10258000138B282123AC7191938A685D23AE6191EE
:1025900037F8F60B23A2519393884853130A082D5A
:1025A00023A011939309482323A44193130948D0EE
:1025B00023A63193930468AD23A82193930D48304B
:1025C00023AA91921308C8AEB756F70B23AC019318
:1025D0001384269723AEB193938386C023A081945E
:1025E0009382069123A2719423A45194138F2713ED
:1025F00023A6F19523A8E195138EA68223ACD1954D
:1026000023AAC195B765F70B23AE61949385C523C3
:102610001386269E23A0B1963245938CC69023A2A2
:10262000C19623A49197B755F70B23A6A19723A88A
:10263000A1961385458D23AAA1963765F70B130440
:1026400025A323AC81961384455723AE81961304AA
:1026500045D623A081981305450D23A2A198938AFE
:1026600006C51385E52C23A4A198138A865A23A8AE
:1026700051999389262E23AA41991389A67D23ACCB
:1026800031999384864423AE2199138467C523A08E
:10269000919A9383A7FC23A2819A9382C7A623A42D
:1026A000719A938FA7FA23A6519A138F27D823AA3A
:1026B000F19B23A8E19B93862690138E077B23AC86
:1026C000D19A1303A78623AEC19B9308278423A026
:1026D000619C1388E77923A2119D1385A77923A410
:1026E000019D938585DA23A6B19823A6A19C9385A5
:1026F000277E1386877B23A8B19C23AAC19C13073E
:10270000678123ACE19C9387677E23AEF19C4101F6
:102710006F00F0061305F00797C0F503E780A04FA0
:102720003747F70BB715F70B1303C7A7B7080020F8
:102730009382053923A46836B70800209383E533D4
:1027400023A65836B7080020938E053023A8783684
:10275000B7080020138EC53823AAD837B708002041
:102760001383A52F23ACC837B708002093824525D3
:1027700023AE6836B70800209383E5B623A0583807
:10278000B7080020938EE5F223A47838B70800201C
:10279000138E25F323A2D839B708002013834522CE
:1027A00023A6C839B70800209382452323AA683896
:1027B000B70800203736F70B23A858389385E5155E
:1027C000B7020020B726F70B930FE6A023ACB23870
:1027D000B7050020138F26F423AEF539938EE6D487
:1027E00023A4E185138EA6DA23A6D1851383A6D769
:1027F00023A8C1859388A6CD23AA6184938206F875
:1028000023AC1185938FC6E923A65186138F46E129
:1028100023A8F187938E26D023AAE187138E466BD7
:1028200023ACD1871383C6F123AEC187930286C739
:10283000B77BF70B938826E723A0618823A25184F6
:102840009302267F23A21189138E2B359388CB31D7
:1028500023A25186938BCB209302667923A05186C5
:102860005EC69302C6A8130C878423A45186930DD9
:10287000067923A08185130C278023AE8185930CD4
:10288000C6EB23A4B189130C27A523A69189930B2A
:1028900067A323A88189138BA66C23AA7189938AC5
:1028A00046E923AC6189138A26DF23AE5189930957
:1028B000468223A0418B1389267123A2318B9384F6
:1028C000667523A4218B23A6918A938666F8130448
:1028D000469923A8D18A9303C69223AA818A930298
:1028E000268C23AC718A930F469B23AE518AB7671F
:1028F000F70B23A0F18D1306668F138F674D23A26C
:10290000C18C938E273123A4E18D23A6D18D13830F
:10291000874623AEC18D3774F70B23A8618C23AA99
:10292000118D1306E42123ACC18C3766F70B930499
:10293000C64523A0918E9304264523A2918E93042D
:10294000842023A4918E9304043223A6918E9304B1
:10295000464AB24B23A8918E9304064723AA918E30
:102960001304642123AC818E37F4F60B37F5F60B94
:1029700023AE718F9304641C3708F70B23A091904A
:10298000130D85501304A4CD23A28190930C68E805
:1029900023A6A191130CE8C823A89191930B485842
:1029A00023AA8191130B481B23AC7191930A88577A
:1029B00023AE619123A251931308684D130AC528D1
:1029C00023A001939309051F23A44193130905CC68
:1029D00023A631933704F70B930425A923A8219349
:1029E000130484B123A4819023AA9192130485AA8D
:1029F00023AC81921305052C9303675323AEA19258
:102A00009302C77C23A07194930F474D23A2519446
:102A1000130F470523A4F195938E67CF23A6E19565
:102A2000130EC72E23A8D1951303E73E23ACC195FF
:102A30009308471B23AA6194138607E023AE1195E0
:102A40009306675A23A0C1963745F70B23A2D19668
:102A50001304054D23A48196130485F223A68196C1
:102A60001304A5FB23A881961305854923AAA196E3
:102A70003755F70B1304655F23AC81963766F70B68
:102A80001304851323AE819613048692B755F70B72
:102A900023A08198130686C923A2C198938A4581F1
:102AA000130625E923A4C198138AC51623A85199B2
:102AB000938965EA23AA41991389E53923AC3199B1
:102AC0009384C50023AE21991384A78123A0919AF2
:102AD0009383E7B823A2819A23A4719A938505630F
:102AE000938FE7B623A6B19A138F679423AAF19B1D
:102AF00023A8E19B1307674C938E473723ACE19AD9
:102B0000138EE74223AED19B1383674023A0C19D60
:102B10009388273623A2619C1388E73523A4119D4F
:102B20001306C59623A6019D1385673A23A6C1986F
:102B300023A8A19C1386C7379386A73D23AAC19CCF
:102B400023ACD19C9387A73A23AEF19C41016F003F
:102B500000437D5582807D558280014582807D5570
:102B600082807D558280B747024003A707803706E1
:102B70000080370500031317C72923A0E78003A7A8
:102B80000780B70680001317072923A0E78083A5D5
:102B9000078037470240D18D23A0B78003A68780E6
:102BA00023A4C78003A6878023A4C78083A587802A
:102BB0009395C52823A4B78083A547809395F528CE
:102BC00023A2B78023AAA78803A64788B745080091
:102BD000498E23A2C78803A647881316B62923A2C5
:102BE000C78803A6C7884D8E23A6C78803A607807B
:102BF000B70530004D8E23A0C78083270780F58F4F
:102C0000EDDF8327878037460240A146F19B2324CE
:102C1000F7808327878093E727002324F780832783
:102C20008680B18BE39DD7FE8280EF028034B74768
:102C3000024003A70780B176FD161367170023A093
:102C4000E78003A78780719B23A4E78023A40780E4
:102C500003A7C788758F23A6E78803A70780B70651
:102C60008FFFFD16758F23A0E78023A2078023A284
:102C700007883707800723AAE78823A60780E5355A
:102C8000371700D1832787FF93E74700232CF7FEF0
:102C9000B5477390C77C01A6EF02A02D29C2B2846C
:102CA0002E8901449305707037150140EFF0AFC0D5
:102CB00075D9B307890037150140050483850700DE
:102CC000B3C50508EFF0AFBEE39E84FC93056070CA
:102CD00037150140EFF02FBE75D922856DAC9305F5
:102CE0006070371501400144EFF0EFBC65D1F5B7D6
:102CF000EF0220289305607037150140EFF0AFBB5D
:102D000075D951ACEF02E026EFE01FF6EFE0DFF8F7
:102D10009305901E2945EFE03FFB1305001EEFE0F1
:102D2000BFFCEFE09FF9EFE05FF6B5A4110573106B
:102D300055308280EF024022411123070100A30792
:102D40000100638D050E3709002083270936AE8404
:102D50002A8ADC5B1306E10085450D458297FD5903
:102D60002A846349350D832709361306F10085450A
:102D7000DC5B114582976341350D0DE9715525ECFA
:102D80008347E10013F717002DEB8347F10013F79A
:102D9000170041C713F7670091466300D70813F780
:102DA0008701C146630BD706854789A005E883479D
:102DB000E10013F7170011CB13F767009146630684
:102DC000D700E18B41476395E7068347E100294738
:102DD000F98B638FE7046D5541014DAA83270936AE
:102DE00005468545BC430145829781472320FA006B
:102DF000A9679CC00145410151AA13F7670091469C
:102E0000E305D7F813F78701C1468147E310D7FEE2
:102E10008347F10013F7170035FF8346E100294788
:102E2000F98A6387E600F98BE397E7FA85477DBF68
:102E300081476DBF7955C1B7755575BF7D5565BF64
:102E4000EF0280113709002083270936AE89B715B4
:102E50000008D84332845971AA842A869385C550C4
:102E60001545029729C40D47832709366305E404F5
:102E700005476305E406FC47B245094582972A8465
:102E8000634105080DE5832709363247B715000869
:102E9000DC439316870013568701E1829385C56151
:102EA000054533470708829722856561C5A001441F
:102EB00022856561E1A89C5734004E8689452685A8
:102EC00082978327093631E9DC43B71500089385DB
:102ED0000557054582978327093671BFDC533400B7
:102EE0004E868945268582978327093629E1DC436A
:102EF000B71500089385055D054582978327093638
:102F00009DBF83270936B71500082A86DC439385C1
:102F1000C55E094582976D5461BFDC43B715000853
:102F20002A869385855309458297755451B7DC43AA
:102F3000B71500082A869385C559094582977154AB
:102F400085BF397101436EC619A0397141536AC8F2
:102F500066CA62CC5ECE19A0397101535AD056D2DE
:102F600052D44ED64AD826DA22DC06DE330161403E
:102F7000828241114AC026C222C406C68282B24D54
:102F80004101024D924C224CB24B4101024B924AFC
:102F9000224AB2494101024992442244B2404101CD
:102FA0008280AA858146014601451DA1411122C4A6
:102FB00026C217140000130464359714000093848C
:102FC000E434058C06C6098411E4B24022449244DC
:102FD000410182807D14B34794209C438297EDB7D2
:102FE000411122C426C2171400001304243297147E
:102FF00000009384A431818C4AC006C689840149AB
:10300000631599021714000013044430971400004C
:103010009384C42F818C89840149631D9900B24037
:10302000224492440249410182801C400509110456
:103030008297F9B71C40050911048297F9BF3D43F7
:103040002A876373C3029377F700BDEFADE59376EC
:1030500006FF3D8ABA960CC34CC30CC74CC7410748
:10306000E36BD7FE11E28280B306C3408A06970263
:10307000000096966780A6002307B700A306B70056
:103080002306B700A305B7002305B700A304B700C4
:103090002304B700A303B7002303B700A302B700BC
:1030A0002302B700A301B7002301B700A300B700B4
:1030B0002300B700828093F5F50F93968500D58D98
:1030C00093960501D58D61B793962700970200006E
:1030D00096968682E78086FA9680C1171D8F3E9667
:1030E000E374C3F8A5B75D7122D406D62A842EDA1C
:1030F00032DC36DEBAC0BEC2C2C4C6C617D5FF17A0
:103100000325852611C51C4D81E72AC6412B324572
:103110000C455418228636CEEF00301DB250225492
:1031200061618280011126CA4AC806CE22CC4EC6F1
:1031300052C4AA842E8901C51C4D91E385239C4C61
:10314000804499E32685992B97E7FFFF93870752E1
:10315000631CF402C0408357C400A18BB1C71C4854
:10316000A1C7FD59294A1C4483450900FD17B1E94F
:103170001CC463DE07062286A94526857920FD57F3
:103180006308F502294535A097E7FFFF93870750AD
:103190006314F4008044C1B797E7FFFF9387074BA0
:1031A000E31BF4FAC04445BFA2852685392A55D9C8
:1031B0007D55F2406244D2444249B249224A0561F7
:1031C00082801CC4050963D70700184C63CBE70055
:1031D000638945011C401387170018C02380B7007E
:1031E00059B7228626851520E31F35F7D1B71C4035
:1031F0001387170018C029472380E70061B7AA8505
:1032000017D5FF170325451631BF011122CC26CA59
:103210004AC806CE4EC6AA842E89328401C51C4DEA
:1032200091E3AD2997E7FFFF938747446319F406BD
:10323000C0401C4C1CC48357C400A18BC9C31C488C
:10324000BDCF1C4808409379F90F1379F90F1D8DF4
:103250005C486346F500A285268515262DE51C44AD
:103260000505FD171CC41C401387170018C02380D8
:1032700037015C486389A7008357C400858B81CBE5
:10328000A9476316F900A2852685D52C0DEDF240DD
:103290006244D244B2494A8542490561828097E737
:1032A000FFFF9387A73E6314F400804459B797E764
:1032B000FFFF9387A739E31EF4F6C0449DBFA285A4
:1032C000268521203DDD7D59D9B7411122C426C272
:1032D0004AC006C697D4FF1783A404092A892E84FE
:1032E00089C49C4C99E32685552E97E7FFFF938769
:1032F000E7376316F402C0408317C40093F68700D3
:1033000033C70708ADEA9376070195EA25472320DE
:10331000E90093E707042316F4007D5569A897E7B1
:10332000FFFF9387A7366314F4008044F1B797E753
:10333000FFFF9387A731E311F4FCC04475BF118BE5
:103340000DC74C5889C9930744046384F5004A8526
:103350006D2B232A04028357C4002322040093F711
:10336000B7FD2316F4001C481CC08357C40093E724
:1033700087002316F4001C4881EF8357C40013070D
:10338000002093F707286385E700A2854A85F12985
:103390008317C40093F6170033C707089DC254482B
:1033A00023240400B306D04014CC1448014581E620
:1033B0001377070839FFB240224492440249410181
:1033C000828093762700014691E2504810C4F1BFF5
:1033D000AA881385019E184111EF9707001893875B
:1033E000E71A1CC1130500003E8709C5184123A434
:1033F000E7083E875C437D487D556344F804638B52
:10340000080203288708630E080233C3072123201C
:10341000C300032608103315F028498E2320C81056
:103420002320D30889466397D80083264810C98E85
:103430002322D8109386170054C3B3C7E720014551
:103440008CC7828083D7C500011122CC26CA06CE44
:103450004AC84EC613F78700AA842E8461EFD8416C
:10346000634DE000B841634AE0000145F240624428
:10347000D2444249B2490561828058547DD785665D
:1034800003A90400F58F23A00400BDCB684883572F
:10349000C400918B99C75C401D8D5C5899C33C401A
:1034A0001D8D5C540C502A868146268582977D5757
:1034B0008357C400631CE500944075476367D706D3
:1034C0003707402005073357D74825C3184823221C
:1034D000040018C00567F98F99C7FD576314F500FC
:1034E0009C4091E368C84C5823A02401BDDD93079C
:1034F00044046384F50026850929232A0402B5B70C
:103500000C508546014626850297FD57E311F5F8D4
:103510009C40B5DF75476385E70059476395E70031
:1035200023A0240199B78357C40093E70704231607
:10353000F4002DBF83A90501E38909F203A9050061
:103540008D8B23A0350133093941014791E3D849D7
:1035500018C4E35C20F11C540C50CA864E862685A4
:103560008297634AA0008357C4007D5593E7070400
:103570002316F400E5BDAA993309A940D9BF9C4997
:10358000B9CF011122CC06CE2A8411C51C4D81E78A
:103590002EC62922B24597E7FFFF9387270D639B2D
:1035A000F5004C408397C50095C722856244F240E0
:1035B000056149BD97E7FFFF9387470D6394F500C9
:1035C0000C44CDB797E7FFFF93874708E39CF5FCD2
:1035D0004C44C9BFF2406244014505618280014507
:1035E0008280411122C406C62A842316B5002317FF
:1035F000C5002320050023220500232405002322E3
:10360000050623280500232A0500232C0500214652
:1036100081451305C505EFF09FA29717000093871A
:10362000A7AF5CD0971700009387E7B11CD497171A
:103630000000938707B65CD4971700009387A7B85C
:10364000B24000D01CD8224441018280970500007E
:10365000938525F381AA411126C21306800693841F
:10366000F5FFB384C4024AC02E8922C406C69385DE
:1036700044072D2E2A8401CD232005002322250175
:10368000310508C4138684068145EFF05F9BB24084
:103690002285224492440249410182801C4DBDE3AF
:1036A000411122C406C697070000938767FA1CD50C
:1036B0002324050423260504232805049717000066
:1036C00083A787C42A846314F50085471CCD22850F
:1036D0001D2848C02285052808C422852D2048C4FD
:1036E000484001469145F53D08440546A545D53D70
:1036F00048440946C945F5358547B2401CCC2244AB
:10370000410182808280411126C29714000083A467
:10371000A4BF9C4C4AC006C622C42A8999E32685C8
:10372000B53F938484048044DC40FD1763D60700D2
:103730009C40B9CF8440C5BF0317C40039E7C177A7
:1037400085072322040623200400232204002324C7
:1037500004005CC423280400232A0400232C040052
:10376000214681451305C405EFF07F8D232A04020D
:10377000232C04022324040423260404B2402285BB
:10378000224492440249410182801304840671BF9D
:1037900091454A85C93588C02A8449FDB14723200F
:1037A000F900E9BF797122D44AD04ECE52CC5AC822
:1037B0005EC606D626D256CA2A892E8A13048504E6
:1037C0008149054BFD5B0444832A4400FD1A63D004
:1037D0000A0200406DF8B250225492540259624AD3
:1037E000D24A424BB24B4E85F2494561828083D723
:1037F000C400637BFB008397E40063877701A685A1
:103800004A85029AB3E9A90093848406C1B7597125
:10381000A2D4A6D2CAD086D62E893284B684839505
:10382000E50063DC05008317C90023A0040093F7BB
:10383000070895E3930700400DA03000EF00101E2D
:10384000E34305FE3247BD67F98F7977BA9793B79F
:1038500017009CC0C5B793070004B6501CC026547F
:103860009654065901456561828083D7C5000111D0
:1038700022CC06CE26CA4AC8898B2E8489CF9307CC
:1038800074041CC01CC885475CC8F2406244D24422
:10389000424905618280740030002A898D3FA2452B
:1038A000AA844A8521228357C40009ED13975760E3
:1038B00093F70720F9FB9377C7FF93E727002316B9
:1038C000F40075BF17070000130787D82324E90207
:1038D00093E707082316F400A24708C008C85CC88D
:1038E000B24791CF4A858315E400EF00D01501C996
:1038F0008357C400F19B93E717002316F400035588
:10390000C400C98C2316940049B7C5C183A7C5FF5D
:10391000011122CC06CE1384C5FF63D307003E9469
:103920002AC6EF0030191387419E1C43324589EBAC
:103930002322040000C36244F24005616F00B01707
:10394000637DF4001040B306C4006396D70094432F
:10395000DC43B29614C05CC0F1BF3E87DC4399C320
:10396000E37DF4FE14433306D700631F8600104046
:10397000B29614C33306D700E39FC7FA9043DC43E3
:10398000B29614C35CC345BF6375C400B1471CC184
:103990005DB71040B306C4006396D7009443DC4380
:1039A000B29614C05CC040C379B78280011126CAA8
:1039B00093843500F1984AC8A104B14706CE22CCC1
:1039C0004EC62A89B3F4F40A63C4040063FDB4004C
:1039D000B1472320F9000145F2406244D2444249F4
:1039E000B24905618280EF00F00C9386419E9842B7
:1039F0003A8415E41384819E1C4089E781454A85F9
:103A0000FD2508C0A6854A85DD25FD59631D3505C0
:103A1000B1472320F9004A85EF00F0096DBF1C4033
:103A2000858F63CF07022D466376F6001CC03E9457
:103A300004C029A05C40631387029CC24A85EF0042
:103A400090071305B4009307440061993307F540CC
:103A5000E304F5F83A94898F1CC0BDBF5CC3F9BF7D
:103A60002287404079B7130435007198E30285FC42
:103A7000B305A4404A85A52DE31C35FB51BF1C4668
:103A8000FD171CC663DA0700184E63C5E700A94797
:103A90006394F5006FF06FF71C422E8513871700B3
:103AA00018C22380B7008280011122CC26CA4AC8DE
:103AB0004EC652C406CE2A89AE893284B304D600DB
:103AC0007D5A63149400014509A8834504004E867D
:103AD0004A8575370504E31645FFF2406244D24437
:103AE0004249B249224A05618280357122CD26CBF6
:103AF0004AC94EC706CF52C556C35AC1DEDEE2DC04
:103B0000AA89AE843289368409C51C4D99E3EFF049
:103B1000FFB897E7FFFF938767B56399F40C83A419
:103B2000490083D7C400A18BE5C79C48F5C3930720
:103B30000002A304F1029307000302D22305F1025D
:103B400022C6930B500297EAFFFF938A2AB6294BAD
:103B50004A848347040099C3639E770D330C244144
:103B6000630D2401E2864A86A6854E85353FFD57C2
:103B70006302F51E9257E2973ED283470400638B9F
:103B8000071CFD571309140002C802CE3ECA02CC1E
:103B9000A309010482D48345090015465685F52DF5
:103BA000C2471304190049E913F7070109C71307AE
:103BB0000002A309E10413F7870009C71307B00245
:103BC000A309E104834609001307A002638DE606FA
:103BD00072474A84814625468347040093051400B2
:103BE000938707FD6376F610B5E6ADA897E7FFFF6C
:103BF0009387C7A96395F40083A489001DB797E74D
:103C0000FFFF9387A7A4E39EF4F083A4C90011BF2C
:103C1000A6854E85EFF06FEB19D97D55FA406A44C1
:103C2000DA444A49BA492A4A9A4A0A4BF65B665C20
:103C30000D618280050431BF33055541B397A72834
:103C400022893EC889BF324793064700184336C6CB
:103C5000634407003ACE39A03307E04093E72700DA
:103C60003ACE3EC8034704009307E0026311F7020F
:103C7000034714009307A0026314F708B24709042E
:103C8000138747009C433AC663CA07063ECA83456A
:103C900004000D4617E5FFFF1305C5A1FD2B11CD4F
:103CA00097E7FFFF938707A11D8D93070004B39744
:103CB000A700424505045D8D2AC8834504001946C6
:103CC00017E5FFFF1305459F130914002304B102F4
:103CD000E92349C993070000B1EF4247B247137780
:103CE000071029C791073EC69257D2973ED28DB58D
:103CF000FF1767C52E843E878546F9BDFD5779B706
:103D0000050402CA814601472546834704009305FE
:103D10001400938707FD6375F600B5DA3ACA85BFCC
:103D2000FF1767C52E843E878546C5B79D07E19B73
:103D3000A10755BF780097060000938626D72686F0
:103D40000C084E8597000000E7000000FD572A8A06
:103D5000E31CF5F883D7C40093F70704E39F07EA51
:103D600012556DBD780097060000938626D42686EE
:103D70000C084E853922D9BF797152CC9C493A8AB8
:103D8000984522D426D24ECE56CA06D64AD05AC814
:103D90005EC6B3E7E70A1CC203C73504AA892E84AE
:103DA000B284B68A19C385071CC21C4093F7070268
:103DB00081C79C4089079CC00329040013796900CE
:103DC000631A0900130B9401FD5B5C449840998FC2
:103DD000634CF90483473404B336F0001C4093F776
:103DE0000702A5EB13063404D6854E85029AFD57CB
:103DF0006303F5041C4011469840998B5444814458
:103E00006397C700B384E6408147B3E4F40A1C44D7
:103E100018486354F700998FBE94014969047D5B8B
:103E200063982405014509A885465A86D6854E859E
:103E3000029A631E75017D55B25022549254025964
:103E4000F249624AD24A424BB24B4561828005092F
:103E5000ADBF3307D40013060003A301C704034713
:103E6000540493871600A2978906A381E7049DBF97
:103E700085462286D6854E85029AE30E65FB0509A6
:103E800045B7797122D426D24AD04ECE06D652CC2E
:103E900056CA5AC803C8850193078007AA842E848E
:103EA0003289B68963EE07019307200693883504AB
:103EB00063ED07016304081C93078005630CF81287
:103EC000930A24042301040515A89307D8F993F74E
:103ED000F70FD546E3E6F6FE97E6FFFF9386C6802A
:103EE000B3C7D7209C43B69782871C43938A250487
:103EF000938647009C4314C32381F504854755A24C
:103F00009C410C4393F60708138645008DC29C41E3
:103F100010C363D807001307D002B307F040A30112
:103F2000E40497D6FFFF9386A6792948A1A093F6CB
:103F300007049C4110C3F1DE93975760D9BF9441A9
:103F40001C4393F506081386470081C510C39C43A4
:103F500039A093F6060410C3FDDA83D707001307D0
:103F6000F00697D6FFFF9386A6756304E80E2948EE
:103F7000A3010404584018C46345070010406D9A1B
:103F800010C099E3C68A19CFC68A33F70703FD1A12
:103F90003697034707002380EA003E87B3D707031D
:103FA000E37507FFA147631EF8001C40858B91CB8A
:103FB00058401C4863C7E70093070003A38FFAFE2D
:103FC000FD1AB3885841232814014E87CA86700011
:103FD000A2852685EFF05FDA7D5A6318450D7D5581
:103FE000B250225492540259F249624AD24A424B88
:103FF00045618280A382050597D6FFFF9386466CB4
:1040000010400C43137506089C41910505CD0CC367
:104010001377160001C71366060210C04148A9FBBA
:1040200018401377F7FD18C0A1B79C4193E707022A
:104030009CC193078007A302F40497D6FFFF9386E1
:1040400066697DBF137506040CC379D1B3C7070831
:10405000C1B7214831BF94411C43D04913F506082C
:104060009385470009C50CC39C4390C301A80CC3AA
:1040700093F606049C43F5DA2390C7002328040036
:10408000C68AA1B71C43D04181459386470014C31B
:1040900083AA07005685112401C5B30755415CC0AA
:1040A0005C401CC8A30104040DB714485686CA8599
:1040B00026858299E30545F31C40898B85E74844B2
:1040C000B2473365F50A29BF85465686CA852685D7
:1040D0008299E30665F1050A5C443247998FE3450E
:1040E000FAFEF1BF014A930A94017D5BF5B74111D5
:1040F00022C42A842E8523A6019E06C6E522FD57EA
:104100006316F50083A7C19E91C31CC0B240224430
:1041100041018280411122C406C62E848395E500A8
:10412000612A634905007C48AA977CC8B2402244B2
:10413000410182808357C4009397C7482316F40037
:10414000F5B783D7C500011122CC26CA4AC84EC68E
:1041500006CE93F70710AA842E843289B68991C7B8
:10416000894601468395E50019228357C4008315CB
:10417000E400F2409397C7482316F4006244CE86C9
:104180004A86B24942492685D244056135A8411183
:1041900022C406C62E848395E500D1287D57835717
:1041A000C400631AE5009397C7482316F400B24091
:1041B0002244410182809397C72868C82316F400DF
:1041C000FDB78395E5003DA0411122C42A842E85C8
:1041D000B285368623A6019E06C6EFE0FFABFD57EB
:1041E0006316F50083A7C19E91C31CC0B240224450
:1041F00041018280411122C42A842E8523A6019E7A
:1042000006C6EFE01F95FD576316F50083A7C19E14
:1042100091C31CC0B240224441018280411122C49A
:104220002A842E85B28523A6019E06C6EFE0BF92A2
:10423000FD576316F50083A7C19E91C31CC0B24011
:10424000224441018280411122C42A842E8523A662
:10425000019E06C6EFE07F90FD576316F50083A729
:10426000C19E91C31CC0B2402244410182804111D1
:1042700022C42A842E85B285368623A6019E06C6D0
:10428000EFE0FF8DFD576316F50083A7C19E91C334
:104290001CC0B24022444101828093F5F50F2A965A
:1042A0006314C5000145828083470500E38DB7FE96
:1042B0000505FDB782808280411122C42A842E85A3
:1042C000B285368623A6019E06C6EFE09F89FD577C
:1042D0006316F50083A7C19E91C31CC0B24022445F
:1042E000410182801387019F1C4389C73E9508C303
:1042F0003E85828097F7FF17938747323E9508C324
:084300003E85828000030020CD
:104308000000000068160008881600084816000813
:104318000000000000000000000000000000000095
:104328000000000000000000000000000000000085
:104338000000000000000000000000000000000075
:104348000000000000000000000000000000000065
:104358000000000000000000000000000000000055
:0843680000E0F40B000300204B
:04000005080011D00E
:00000001FF
